:03000000020BD61A
:0C0BD600787FE4F6D8FD758164020C1DE8
:100E6100C0F9A4B0999282F880908883C6A1868E39
:100E7100FFBFF77F40792430191202780010080370
:090E81004621060ECCEE8CB7A34D
:100C62000129000A491000000000000000000010E5
:100C72000BEEEDEBE7DEDDDBD7BEBDBBB77E7D7BEA
:100C820077063B10101010101006430503050806E6
:100C920006015300011D00011C00012A000155003C
:100CA200010A00013800015A000456000000000247
:100CB2001E0000011B00015400022E000002410030
:100CC20000013A00022107E6012001013001012D55
:0B0CD2000001390001310002080000A1
:070EB20093F5807F017E0033
:100EB900D3EF9400EE94004015E4FDFC0DBD000154
:0E0EC9000CED64644C70F5EF1F70E51E80E2C6
:010ED70022F8
:10043000E52A1470030204C224FB40030205E270A3
:100440000302069F240660030206C4E50A640170E5
:100450003CAE5BAF5CFC7D0A120CF08F49AE5BAF2B
:100460005C7C007D0A120CF08D4A754B11AE5DAFBD
:100470005E7C007D0A120CF08F4CAE5DAF5E7C009E
:100480007D0A120CF08D4D754E11020542E5317555
:10049000F00A84F549E53175F00A8485F04A754B18
:1004A00011E53975F00A84F54CE53975F00A848553
:1004B000F04D754E11E52D75F00A84F54FE52D02CE
:1004C00005D7E50A6402600302055FAE5BAF5C7CA2
:1004D000037DE8120CF08F497E007C037DE8120C4E
:1004E000DEC3E55C9FFFE55B9EFE7C007D64120C35
:1004F000F08F4AAE5BAF5C7C007D64120CF07C0038
:100500007D64120CDEC3E55C9FFFE55B9EFE7D0A09
:10051000120CF08F4BAE5BAF5C7C007D0A120CF0CE
:10052000ED2414F54CAE5DAF5E7C007D0A120CF03C
:100530008F4DAE5DAF5E7C007D0A120CF0ED241491
:10054000F54EAE5FAF607C007D0A120CF08F4FAEAF
:100550005FAF607C007D0A120CF08D500205DEAEAC
:1005600021AF227C037DE8120CF08F497E007C03D2
:100570007DE8120CDEC3E5229FFFE5219EFE7C0094
:100580007D64120CF08F4AAE21AF227C007D641294
:100590000CF07C007D64120CDEC3E5229FFFE52198
:1005A0009EFE7D0A120CF08F4BAE21AF227C007DA7
:1005B0000A120CF0ED2414F54CE52075F00A84F5D0
:1005C0004DE52075F00A84E5F02414F54EE530750C
:1005D000F00A84F54FE53075F00A8485F0507551C6
:1005E0002522C3E51D940374809480402475490F2F
:1005F000754A26754B21754C27E51C75F00A84F564
:100600004DE51C75F00A8485F04E754F1975501034
:1006100022AF2A7E00EF64026005EF640370087564
:100620004926754A27801AEF64044E7008754926DA
:10063000754A15800CEF64054E7006754926754A9B
:10064000167A007B02EB24FEFFEA34FFFEC3EF952F
:10065000537480F86E98502BAF2AEF64046005EF56
:100660006405700E74212BF8E6FF74492BF8A60779
:10067000800674492BF876280BBB00010AEB64084E
:100680004A70C2C3EB9408EA64809480500D7449A8
:100690002BF876120BBB00010A80E875512422E486
:1006A000FAFBE555B5030CE4B5020874492BF8765E
:1006B00011800674492BF876100BBB00010AEB641D
:0406C000084A70DE96
:0106C4002213
:100B47007563007564017580FFE4FBFAF561F56272
:100B570074492BF8E6F9FF7E0064256049E50A60D1
:100B670014E51BB5030FE4B5020BC3E51F9484E539
:100B77001E94034013EF64244E60208564A0E9901F
:100B87000E61120EB27580FFE56425E0F564E5633A
:100B970033F5630562E562700205610BBB00010A6C
:100BA700EB640A4A70AAC3EB940AEA9400501F85C3
:100BB70064A0900E71E4120EB27580FFE56425E023
:0E0BC700F564E56333F5630BBB00010A80D8CB
:010BD50022FD
:100ED800758922E4F58DF58BF58CF58AD2AFD2A908
:030EE800D28C2287
:100E8A00AB07AA067C017D90120CF0ED4C6013EBC7
:100E9A0054037011AE02AF03FC7D64120CF0ED4CEA
:080EAA0060037F01227F00229A
:100E0700ED24FE601D14601724FE601324FE600F9E
:100E170014600C24FE600824FE6004240B700F7F0E
:100E27001F22120E8AEF60037F1D227F1C227F1E66
:010E37002298
:0608DB00F55BAD1BAF0A46
:1008E100A905EF14700302097D1470030209D124D4
:1008F100026003020A33C3E52D943C748094805056
:1009010003020A33E4F52D0539E539943C748094EA
:10091100805003020A33E4F5390531E53194187446
:100921008094805003020A33E4F5310530AD20AFE5
:1009310022AE21120E07EF2401FFE433FEC3E5309E
:100941009FEE6480F87480985003020A3375300179
:100951000520E520940D748094805003020A3375BC
:1009610020010522E52270020521940FE52194273B
:100971005003020A337521077522D022E96044141D
:10098100604124FE602514602224FD60060460039A
:10099100020A33C3E560943CE55F9400400DE4F541
:1009A1005FF560055EE55E7002055DC3E55E943C42
:1009B100E55D9400400DE4F55DF55E055CE55C7078
:1009C10002055BC3E55C9418E55B94004064805DBF
:1009D100E9604F14604C14603014602D24FB500208
:1009E1008050AD5EAF5CAE5B120E07EF2401FFE4F9
:1009F10033FEC3E5609FE55F9E400E755F00756045
:100A010001055EE55E7002055DC3E55E940DE55D81
:100A11009400400E755D00755E01055CE55C700239
:100A2100055BC3E55C940FE55B94274005E4F55B4A
:030A3100F55C224F
:03000B00020A34B2
:100A3400C0E0C0F0C083C082C0D075D000C000C088
:0D0A440001C002C003C004C005C006C00709
:100A5100E47F107E0EFDFCAB59AA58A957A856C3D6
:100A6100120D455015E5592401F559E43558F5584D
:100A7100E43557F557E43556F556051FE51F700265
:100A8100051EC39408E51E94074006751E00751FD8
:100A910000E5546008052FE52F7002052E0509E5D4
:100AA1000970020508E52A6406703E7F847E03FD15
:100AB100FCAB59AA58A957A856C3120D45402A752F
:100AC1005401754100754264752E00752F0005555E
:100AD100E5559408748094804003752A0075590087
:100AE100755800755700755600C3E5099410E5085F
:100AF100940E403775080075090030B011D3E5290F
:100B01009400748094805004C2B080021529C3E51A
:100B11001D940374809480400AE51C7004F51D80C7
:0B0B210002151C052DE4FDFF1208E189
:100B2C00D007D006D005D004D003D002D001D0001D
:0B0B3C00D0D0D082D083D0F0D0E032C7
:100DAF00853C3B853E3D853F3E7580FF75900F121C
:100DBF000EB5E590540FFB7580FF7590F0120EB5D0
:100DCF00E59054F0FF53030F5307F0EF4BF540E45A
:100DDF00FFFE740B2FF8E6B540048F3F800E753F72
:100DEF00100FBF00010EEF64104E70E6E53DB53EEB
:070DFF0006B53F03853F3CF0
:010E060022C9
:1006C500E53B641060030208D7E53CFB7A00641043
:1006D50070030208D7AF2AEF64026012EF6403606B
:1006E5000DEF64046008EF640560030208D7C3E5F5
:1006F5001D94037480948040127541027542BCE4D8
:10070500F52EF52F755403FE7F0122C3E55394069C
:10071500748094805074C3EB9401EA6480948040A3
:1007250017D3E53C940374809480500CAF53055364
:1007350074232FF8A63C8052AF3CC3EF9405748018
:100745009480400FD3EF9407748094805005E53C66
:1007550014801AAF3CC3EF940974809480401BD376
:10076500EF940B748094805011E53C24FEFFAE534A
:10077500055374232EF8A6078010E53C640E700A15
:10078500AF53055374232FF8E4F6E553640660036D
:100795000208D7AF2AFEEF64037047FCFD74232DD2
:1007A500F8E6FB74432DF8E6B5030B0DBD00010C0F
:1007B500ED64064C70E7ED64064C7005752A0480FF
:1007C500447541027542BCE4F52EF52F75540305B9
:1007D5001DC3E51D94037480948050030208D40260
:1007E50008D1EF64044E7027FCFD74232DF8E6FF55
:1007F50074322DF8A6070DBD00010CED64064C7092
:10080500E9752A05E4F55375410175422C804BE5E0
:100815002A64057060FCFD74232DF8E6FF74322D03
:10082500F8E6B5070B0DBD00010CED64064C70E74D
:10083500ED64064C702DFCFD74232DF8E6FF744322
:100845002DF8A6070DBD00010CED64064C70E9E41A
:10085500F52AF553754101754290F52EF52F75541E
:1008650004806CE4F5537541027542BCF52EF52FF5
:10087500755403805AE4FCFD74232DF8E6FF744398
:100885002DF8E6B5070B0DBD00010CED64064C70A7
:10089500E7ED64064C701AD2B0752903F553F52AB5
:1008A50075410175422CF52EF52F755404F51D8003
:1008B5001E7541027542BCE4F52EF52F75540305EE
:1008C5001DC3E51D9403748094804003751C1EE4CC
:0508D500F553E4FEFFF5
:0108DA0022FB
:10000E00E53B641060030203D5E53C641070030207
:10001E0003D57554017541007542C8E4F52EF52FD0
:10002E00E53C24F1602D240260030200E0E50A6045
:10003E0005E4F50A8018052AD3E52A940274809403
:10004E00804003E4F52AE52A64027002F5537E002F
:10005E007F0122AF0A7E00EF6401700D855C318551
:10006E005E3985602DF50A8069EF64024E70108549
:10007E005B21855C22855E20856030F50A8053E425
:10008E007F087E07FDFCAB59AA58A957A856C31284
:10009E000D45500A752A03E4F553FE7F0122AF2A5F
:1000AE007E00EF7014750A01F55B85315CF55D8598
:1000BE00395EF55F852D608019EF64014E70137502
:1000CE000A0285215B85225CF55D85205EF55F85E4
:1000DE003060E50A70030203D5AF3CD374019F7400
:1000EE0080F898500EEF9403748094805005853CF0
:1000FE0061805AAF3C7E00D374059F7480F898508F
:10010E0010EF9407748094805007E53C14F56180DD
:10011E003CD374099FEE6480F87480985012EF946B
:10012E000BEE648094805008E53C24FEF561801D42
:10013E00D3740D9FEE6480F87480985010EF940F76
:10014E00EE648094805006E53C24FDF561AF617E3F
:10015E0000C3EF940A748094804008EF640B600330
:10016E00020387EF640B4E7002F561E51BB40800C5
:10017E00400302038790018AF82828730201A20225
:10018E0001ED02025402028C0202CB0203100203A2
:10019E003302035DE50A6401AE5BAF5C7018FC7D53
:1001AE000A120CF0E56175F00AA4AEF02DF55CEEC6
:1001BE003CF55B0203567C037DE8120CF07C037D5C
:1001CE00E8120CDEC3E55C9FFBE55B9EFAAF617E39
:1001DE0000120CDEEF2BF55CEE3AF55B020356E5F2
:1001EE000A6401AE5BAF5C701BFC7D0A120CF07CE6
:1001FE00007D0A120CDEEF2561F55CEC3E1208DB89
:10020E00051B803D7C037DE8120CF07C007D0A12FC
:10021E000CDEEF2561FFEC3EFE7D64120CDEAA06BD
:10022E00AB07AE5BAF5C120CF07C007D64120CDE93
:10023E00C3E55C9FCFE55B9ECF2BF55CEF3A1208D2
:10024E00DB051B020387E50A6401602FAE5BAF5C22
:10025E007C007D64120CF07C007D0A120CDEEF2512
:10026E0061FFEC3EFE120CDEAA06AB07AE5BAF5C86
:10027E00120CF0EB2DF55CEA3CF55B020356E50A39
:10028E006401701BAE5DAF5EFC7D0A120CF0E56181
:10029E0075F00AA4AEF02DF55EEE3CF55D801BAE5A
:1002AE005BAF5C7C007D0A120CF07C007D0A120CA8
:1002BE00DEEF2561F55CEC3EF55B020356E50A6464
:1002CE0001AE5DAF5E701DFC7D0A120CF07C007DF0
:1002DE000A120CDEEF2561F55EEC3EF55D1208DDCF
:1002EE00051B80197C007D0A120CF0E56175F00A81
:1002FE00A4AEF02DF55EEE3CF55D1208DD051B0299
:10030E000387E50A6401601BAE5DAF5E7C007D0A6B
:10031E00120CF07C007D0A120CDEEF2561F55EEC0E
:10032E003EF55D8023E50A6401AE5FAF607003FCAD
:10033E0080027C007D0A120CF0E56175F00AA4AE15
:10034E00F02DF560EE3CF55F1208DD051B802AE509
:10035E000A6401AE5FAF607003FC80027C007D0A10
:10036E00120CF07C007D0A120CDEEF2561F560ECBC
:10037E003EF55F1208DDE4F51BAF3C7E00EF701614
:10038E00151BE50A6401700EAD1BED64026005EDF0
:10039E0064057002151BEF64044E7016051BE50A0A
:1003AE006401700EAF1BEF64026005EF640570020E
:1003BE00051BE51B64087002F51BAF1B7E00BEFF1C
:1003CE0006BFFF03751B07E53B64106051E53C64F7
:1003DE0010704BE53B24F16031240F7041753117DD
:1003EE00753937752D14C2B07543057544037545BF
:1003FE0005754608754706754806E4F50AF51DF5B8
:10040E001CF555F53A752A068014E538700D7538C9
:10041E0001F559F558F557F5568003E4F538E4FE25
:01042E00FFCE
:01042F0022AA
:0B0EEB0012000EEF4E70031206C5222D
:100D5600E554FB7A00604AE54245417007F52B757C
:100D66002C01800FAC41AD42AE2EAF2F120CF08E8F
:100D76002B8F2CE52C20E005753A018003E4F53A2B
:100D8600052FE52F7002052EEB25E0FFEA33FEC3A3
:100D9600E52C9FE52B9E4009E4F554F52EF52FF53D
:090DA6003AE53A24FFB392B222AF
:100E3800120ED87F3C7E00120EB9753117753937FE
:100E4800752D14C2B0752A06120430120B47120D04
:090E5800AF120EEB120D5680EFF3
:100BE200020E38E493A3F8E493A34003F68001F2E3
:100BF20008DFF48029E493A3F85407240CC8C33314
:100C0200C4540F4420C8834004F456800146F6DFE2
:100C1200E4800B0102040810204080900C62E47E04
:100C2200019360BCA3FF543F30E509541FFEE493D7
:100C3200A360010ECF54C025E060A840B8E493A39E
:100C4200FAE493A3F8E493A3C8C582C8CAC583CAC9
:100C5200F0A3C8C582C8CAC583CADFE9DEE780BE81
:010CDD000016
:100CDE00EF8DF0A4A8F0CF8CF0A428CE8DF0A42E2A
:020CEE00FE22E4
:100CF000BC000BBE0029EF8DF084FFADF022E4CCE8
:100D0000F875F008EF2FFFEE33FEEC33FCEE9DECB0
:100D1000984005FCEE9DFE0FD5F0E9E4CEFD22EDF6
:100D2000F8F5F0EE8420D21CFEADF075F008EF2F40
:100D3000FFED33FD4007985006D5F0F222C398FD31
:050D40000FD5F0EA22CE
:100D4500EB9FF5F0EA9E42F0E99D42F0E89C45F004
:010D5500227B
:00000001FF
